{
    "contractName": "CallableBondDepository",
    "abi": [
        {
            "inputs": [
                {
                    "internalType": "contract IERC20",
                    "name": "_req",
                    "type": "address"
                },
                {
                    "internalType": "address",
                    "name": "_treasury",
                    "type": "address"
                }
            ],
            "stateMutability": "nonpayable",
            "type": "constructor"
        },
        {
            "anonymous": false,
            "inputs": [
                {
                    "indexed": true,
                    "internalType": "contract IAuthority",
                    "name": "authority",
                    "type": "address"
                }
            ],
            "name": "AuthorityUpdated",
            "type": "event"
        },
        {
            "anonymous": false,
            "inputs": [
                {
                    "indexed": true,
                    "internalType": "uint256",
                    "name": "id",
                    "type": "uint256"
                },
                {
                    "indexed": false,
                    "internalType": "uint256",
                    "name": "amount",
                    "type": "uint256"
                },
                {
                    "indexed": false,
                    "internalType": "uint256",
                    "name": "price",
                    "type": "uint256"
                },
                {
                    "indexed": false,
                    "internalType": "int256",
                    "name": "underlyingReference",
                    "type": "int256"
                }
            ],
            "name": "Bond",
            "type": "event"
        },
        {
            "anonymous": false,
            "inputs": [
                {
                    "indexed": true,
                    "internalType": "uint256",
                    "name": "id",
                    "type": "uint256"
                }
            ],
            "name": "CloseMarket",
            "type": "event"
        },
        {
            "anonymous": false,
            "inputs": [
                {
                    "indexed": true,
                    "internalType": "uint256",
                    "name": "id",
                    "type": "uint256"
                },
                {
                    "indexed": true,
                    "internalType": "address",
                    "name": "baseToken",
                    "type": "address"
                },
                {
                    "indexed": true,
                    "internalType": "address",
                    "name": "asset",
                    "type": "address"
                },
                {
                    "indexed": false,
                    "internalType": "uint256",
                    "name": "initialPrice",
                    "type": "uint256"
                }
            ],
            "name": "CreateMarket",
            "type": "event"
        },
        {
            "anonymous": false,
            "inputs": [
                {
                    "indexed": true,
                    "internalType": "uint256",
                    "name": "id",
                    "type": "uint256"
                },
                {
                    "indexed": false,
                    "internalType": "uint256",
                    "name": "oldControlVariable",
                    "type": "uint256"
                },
                {
                    "indexed": false,
                    "internalType": "uint256",
                    "name": "newControlVariable",
                    "type": "uint256"
                }
            ],
            "name": "Tuned",
            "type": "event"
        },
        {
            "inputs": [
                {
                    "internalType": "uint256",
                    "name": "",
                    "type": "uint256"
                }
            ],
            "name": "adjustments",
            "outputs": [
                {
                    "internalType": "uint256",
                    "name": "change",
                    "type": "uint256"
                },
                {
                    "internalType": "uint48",
                    "name": "lastAdjustment",
                    "type": "uint48"
                },
                {
                    "internalType": "uint48",
                    "name": "timeToAdjusted",
                    "type": "uint48"
                },
                {
                    "internalType": "bool",
                    "name": "active",
                    "type": "bool"
                }
            ],
            "stateMutability": "view",
            "type": "function"
        },
        {
            "inputs": [],
            "name": "authority",
            "outputs": [
                {
                    "internalType": "contract IAuthority",
                    "name": "",
                    "type": "address"
                }
            ],
            "stateMutability": "view",
            "type": "function"
        },
        {
            "inputs": [
                {
                    "internalType": "address",
                    "name": "_user",
                    "type": "address"
                },
                {
                    "internalType": "uint256[]",
                    "name": "_indexes",
                    "type": "uint256[]"
                }
            ],
            "name": "call",
            "outputs": [
                {
                    "internalType": "uint256",
                    "name": "payout_",
                    "type": "uint256"
                }
            ],
            "stateMutability": "nonpayable",
            "type": "function"
        },
        {
            "inputs": [
                {
                    "internalType": "address",
                    "name": "_user",
                    "type": "address"
                }
            ],
            "name": "callAll",
            "outputs": [
                {
                    "internalType": "uint256",
                    "name": "",
                    "type": "uint256"
                }
            ],
            "stateMutability": "nonpayable",
            "type": "function"
        },
        {
            "inputs": [
                {
                    "internalType": "uint256",
                    "name": "_id",
                    "type": "uint256"
                }
            ],
            "name": "close",
            "outputs": [],
            "stateMutability": "nonpayable",
            "type": "function"
        },
        {
            "inputs": [
                {
                    "internalType": "contract IERC20",
                    "name": "_asset",
                    "type": "address"
                },
                {
                    "internalType": "address",
                    "name": "_underlying",
                    "type": "address"
                },
                {
                    "internalType": "uint256[5]",
                    "name": "_market",
                    "type": "uint256[5]"
                },
                {
                    "internalType": "bool[2]",
                    "name": "_booleans",
                    "type": "bool[2]"
                },
                {
                    "internalType": "uint256[3]",
                    "name": "_terms",
                    "type": "uint256[3]"
                },
                {
                    "internalType": "uint32[2]",
                    "name": "_intervals",
                    "type": "uint32[2]"
                }
            ],
            "name": "create",
            "outputs": [
                {
                    "internalType": "uint256",
                    "name": "id_",
                    "type": "uint256"
                }
            ],
            "stateMutability": "nonpayable",
            "type": "function"
        },
        {
            "inputs": [
                {
                    "internalType": "uint256",
                    "name": "_id",
                    "type": "uint256"
                }
            ],
            "name": "currentControlVariable",
            "outputs": [
                {
                    "internalType": "uint256",
                    "name": "",
                    "type": "uint256"
                }
            ],
            "stateMutability": "view",
            "type": "function"
        },
        {
            "inputs": [
                {
                    "internalType": "uint256",
                    "name": "_id",
                    "type": "uint256"
                }
            ],
            "name": "currentDebt",
            "outputs": [
                {
                    "internalType": "uint256",
                    "name": "",
                    "type": "uint256"
                }
            ],
            "stateMutability": "view",
            "type": "function"
        },
        {
            "inputs": [],
            "name": "daoReward",
            "outputs": [
                {
                    "internalType": "uint256",
                    "name": "",
                    "type": "uint256"
                }
            ],
            "stateMutability": "view",
            "type": "function"
        },
        {
            "inputs": [
                {
                    "internalType": "uint256",
                    "name": "_id",
                    "type": "uint256"
                }
            ],
            "name": "debtDecay",
            "outputs": [
                {
                    "internalType": "uint256",
                    "name": "",
                    "type": "uint256"
                }
            ],
            "stateMutability": "view",
            "type": "function"
        },
        {
            "inputs": [
                {
                    "internalType": "uint256",
                    "name": "_id",
                    "type": "uint256"
                }
            ],
            "name": "debtRatio",
            "outputs": [
                {
                    "internalType": "uint256",
                    "name": "",
                    "type": "uint256"
                }
            ],
            "stateMutability": "view",
            "type": "function"
        },
        {
            "inputs": [
                {
                    "internalType": "uint256",
                    "name": "_id",
                    "type": "uint256"
                },
                {
                    "internalType": "uint256",
                    "name": "_amount",
                    "type": "uint256"
                },
                {
                    "internalType": "uint256",
                    "name": "_maxPrice",
                    "type": "uint256"
                },
                {
                    "internalType": "address",
                    "name": "_user",
                    "type": "address"
                },
                {
                    "internalType": "address",
                    "name": "_referral",
                    "type": "address"
                }
            ],
            "name": "deposit",
            "outputs": [
                {
                    "internalType": "uint256",
                    "name": "payout_",
                    "type": "uint256"
                },
                {
                    "internalType": "uint256",
                    "name": "expiry_",
                    "type": "uint256"
                },
                {
                    "internalType": "uint256",
                    "name": "index_",
                    "type": "uint256"
                }
            ],
            "stateMutability": "nonpayable",
            "type": "function"
        },
        {
            "inputs": [
                {
                    "internalType": "address",
                    "name": "_feed",
                    "type": "address"
                }
            ],
            "name": "getLatestPriceData",
            "outputs": [
                {
                    "internalType": "uint80",
                    "name": "roundId",
                    "type": "uint80"
                },
                {
                    "internalType": "int256",
                    "name": "answer",
                    "type": "int256"
                },
                {
                    "internalType": "uint256",
                    "name": "startedAt",
                    "type": "uint256"
                },
                {
                    "internalType": "uint256",
                    "name": "updatedAt",
                    "type": "uint256"
                },
                {
                    "internalType": "uint80",
                    "name": "answeredInRound",
                    "type": "uint80"
                }
            ],
            "stateMutability": "view",
            "type": "function"
        },
        {
            "inputs": [],
            "name": "getReward",
            "outputs": [],
            "stateMutability": "nonpayable",
            "type": "function"
        },
        {
            "inputs": [
                {
                    "internalType": "address",
                    "name": "_user",
                    "type": "address"
                }
            ],
            "name": "indexesFor",
            "outputs": [
                {
                    "internalType": "uint256[]",
                    "name": "",
                    "type": "uint256[]"
                }
            ],
            "stateMutability": "view",
            "type": "function"
        },
        {
            "inputs": [
                {
                    "internalType": "uint256",
                    "name": "_id",
                    "type": "uint256"
                }
            ],
            "name": "isLive",
            "outputs": [
                {
                    "internalType": "bool",
                    "name": "",
                    "type": "bool"
                }
            ],
            "stateMutability": "view",
            "type": "function"
        },
        {
            "inputs": [],
            "name": "liveMarkets",
            "outputs": [
                {
                    "internalType": "uint256[]",
                    "name": "",
                    "type": "uint256[]"
                }
            ],
            "stateMutability": "view",
            "type": "function"
        },
        {
            "inputs": [
                {
                    "internalType": "address",
                    "name": "_token",
                    "type": "address"
                }
            ],
            "name": "liveMarketsFor",
            "outputs": [
                {
                    "internalType": "uint256[]",
                    "name": "",
                    "type": "uint256[]"
                }
            ],
            "stateMutability": "view",
            "type": "function"
        },
        {
            "inputs": [
                {
                    "internalType": "uint256",
                    "name": "_id",
                    "type": "uint256"
                }
            ],
            "name": "marketPrice",
            "outputs": [
                {
                    "internalType": "uint256",
                    "name": "",
                    "type": "uint256"
                }
            ],
            "stateMutability": "view",
            "type": "function"
        },
        {
            "inputs": [
                {
                    "internalType": "uint256",
                    "name": "",
                    "type": "uint256"
                }
            ],
            "name": "markets",
            "outputs": [
                {
                    "internalType": "uint256",
                    "name": "capacity",
                    "type": "uint256"
                },
                {
                    "internalType": "contract IERC20",
                    "name": "asset",
                    "type": "address"
                },
                {
                    "internalType": "address",
                    "name": "underlying",
                    "type": "address"
                },
                {
                    "internalType": "bool",
                    "name": "capacityInQuote",
                    "type": "bool"
                },
                {
                    "internalType": "uint256",
                    "name": "totalDebt",
                    "type": "uint256"
                },
                {
                    "internalType": "uint256",
                    "name": "maxPayout",
                    "type": "uint256"
                },
                {
                    "internalType": "uint256",
                    "name": "sold",
                    "type": "uint256"
                },
                {
                    "internalType": "uint256",
                    "name": "purchased",
                    "type": "uint256"
                }
            ],
            "stateMutability": "view",
            "type": "function"
        },
        {
            "inputs": [
                {
                    "internalType": "address",
                    "name": "",
                    "type": "address"
                },
                {
                    "internalType": "uint256",
                    "name": "",
                    "type": "uint256"
                }
            ],
            "name": "marketsForQuote",
            "outputs": [
                {
                    "internalType": "uint256",
                    "name": "",
                    "type": "uint256"
                }
            ],
            "stateMutability": "view",
            "type": "function"
        },
        {
            "inputs": [
                {
                    "internalType": "uint256",
                    "name": "",
                    "type": "uint256"
                }
            ],
            "name": "metadata",
            "outputs": [
                {
                    "internalType": "uint48",
                    "name": "lastTune",
                    "type": "uint48"
                },
                {
                    "internalType": "uint48",
                    "name": "lastDecay",
                    "type": "uint48"
                },
                {
                    "internalType": "uint48",
                    "name": "length",
                    "type": "uint48"
                },
                {
                    "internalType": "uint48",
                    "name": "depositInterval",
                    "type": "uint48"
                },
                {
                    "internalType": "uint48",
                    "name": "tuneInterval",
                    "type": "uint48"
                },
                {
                    "internalType": "uint8",
                    "name": "assetDecimals",
                    "type": "uint8"
                }
            ],
            "stateMutability": "view",
            "type": "function"
        },
        {
            "inputs": [
                {
                    "internalType": "address",
                    "name": "_user",
                    "type": "address"
                },
                {
                    "internalType": "uint256",
                    "name": "_index",
                    "type": "uint256"
                }
            ],
            "name": "optionPayoutFor",
            "outputs": [
                {
                    "internalType": "uint256",
                    "name": "payoff_",
                    "type": "uint256"
                }
            ],
            "stateMutability": "view",
            "type": "function"
        },
        {
            "inputs": [
                {
                    "internalType": "uint256",
                    "name": "_amount",
                    "type": "uint256"
                },
                {
                    "internalType": "uint256",
                    "name": "_id",
                    "type": "uint256"
                }
            ],
            "name": "payoutFor",
            "outputs": [
                {
                    "internalType": "uint256",
                    "name": "",
                    "type": "uint256"
                }
            ],
            "stateMutability": "view",
            "type": "function"
        },
        {
            "inputs": [
                {
                    "internalType": "address",
                    "name": "_user",
                    "type": "address"
                },
                {
                    "internalType": "uint256",
                    "name": "_index",
                    "type": "uint256"
                }
            ],
            "name": "pendingFor",
            "outputs": [
                {
                    "internalType": "uint256",
                    "name": "payout_",
                    "type": "uint256"
                },
                {
                    "internalType": "bool",
                    "name": "matured_",
                    "type": "bool"
                },
                {
                    "internalType": "bool",
                    "name": "payoffClaimable_",
                    "type": "bool"
                }
            ],
            "stateMutability": "view",
            "type": "function"
        },
        {
            "inputs": [
                {
                    "internalType": "address",
                    "name": "_from",
                    "type": "address"
                },
                {
                    "internalType": "uint256",
                    "name": "_index",
                    "type": "uint256"
                }
            ],
            "name": "pullTerms",
            "outputs": [
                {
                    "internalType": "uint256",
                    "name": "newIndex_",
                    "type": "uint256"
                }
            ],
            "stateMutability": "nonpayable",
            "type": "function"
        },
        {
            "inputs": [
                {
                    "internalType": "address",
                    "name": "_to",
                    "type": "address"
                },
                {
                    "internalType": "uint256",
                    "name": "_index",
                    "type": "uint256"
                }
            ],
            "name": "pushTerms",
            "outputs": [],
            "stateMutability": "nonpayable",
            "type": "function"
        },
        {
            "inputs": [],
            "name": "refReward",
            "outputs": [
                {
                    "internalType": "uint256",
                    "name": "",
                    "type": "uint256"
                }
            ],
            "stateMutability": "view",
            "type": "function"
        },
        {
            "inputs": [],
            "name": "req",
            "outputs": [
                {
                    "internalType": "contract IERC20",
                    "name": "",
                    "type": "address"
                }
            ],
            "stateMutability": "view",
            "type": "function"
        },
        {
            "inputs": [
                {
                    "internalType": "address",
                    "name": "",
                    "type": "address"
                }
            ],
            "name": "rewards",
            "outputs": [
                {
                    "internalType": "uint256",
                    "name": "",
                    "type": "uint256"
                }
            ],
            "stateMutability": "view",
            "type": "function"
        },
        {
            "inputs": [
                {
                    "internalType": "contract IAuthority",
                    "name": "_newAuthority",
                    "type": "address"
                }
            ],
            "name": "setAuthority",
            "outputs": [],
            "stateMutability": "nonpayable",
            "type": "function"
        },
        {
            "inputs": [
                {
                    "internalType": "uint256",
                    "name": "_toFrontEnd",
                    "type": "uint256"
                },
                {
                    "internalType": "uint256",
                    "name": "_toDAO",
                    "type": "uint256"
                }
            ],
            "name": "setRewards",
            "outputs": [],
            "stateMutability": "nonpayable",
            "type": "function"
        },
        {
            "inputs": [
                {
                    "internalType": "uint256",
                    "name": "",
                    "type": "uint256"
                }
            ],
            "name": "terms",
            "outputs": [
                {
                    "internalType": "bool",
                    "name": "fixedTerm",
                    "type": "bool"
                },
                {
                    "internalType": "int256",
                    "name": "thresholdPercentage",
                    "type": "int256"
                },
                {
                    "internalType": "uint256",
                    "name": "maxPayoffPercentage",
                    "type": "uint256"
                },
                {
                    "internalType": "uint256",
                    "name": "controlVariable",
                    "type": "uint256"
                },
                {
                    "internalType": "uint48",
                    "name": "vesting",
                    "type": "uint48"
                },
                {
                    "internalType": "uint48",
                    "name": "exerciseDuration",
                    "type": "uint48"
                },
                {
                    "internalType": "uint48",
                    "name": "conclusion",
                    "type": "uint48"
                },
                {
                    "internalType": "uint256",
                    "name": "maxDebt",
                    "type": "uint256"
                }
            ],
            "stateMutability": "view",
            "type": "function"
        },
        {
            "inputs": [],
            "name": "updateTreasury",
            "outputs": [],
            "stateMutability": "nonpayable",
            "type": "function"
        },
        {
            "inputs": [
                {
                    "internalType": "address",
                    "name": "",
                    "type": "address"
                },
                {
                    "internalType": "uint256",
                    "name": "",
                    "type": "uint256"
                }
            ],
            "name": "userTerms",
            "outputs": [
                {
                    "internalType": "int256",
                    "name": "cryptoIntitialPrice",
                    "type": "int256"
                },
                {
                    "internalType": "int256",
                    "name": "cryptoClosingPrice",
                    "type": "int256"
                },
                {
                    "internalType": "uint256",
                    "name": "payout",
                    "type": "uint256"
                },
                {
                    "internalType": "uint48",
                    "name": "created",
                    "type": "uint48"
                },
                {
                    "internalType": "uint48",
                    "name": "matured",
                    "type": "uint48"
                },
                {
                    "internalType": "uint48",
                    "name": "redeemed",
                    "type": "uint48"
                },
                {
                    "internalType": "uint48",
                    "name": "exercised",
                    "type": "uint48"
                },
                {
                    "internalType": "uint48",
                    "name": "marketID",
                    "type": "uint48"
                }
            ],
            "stateMutability": "view",
            "type": "function"
        },
        {
            "inputs": [
                {
                    "internalType": "address",
                    "name": "_operator",
                    "type": "address"
                }
            ],
            "name": "whitelist",
            "outputs": [],
            "stateMutability": "nonpayable",
            "type": "function"
        },
        {
            "inputs": [
                {
                    "internalType": "address",
                    "name": "",
                    "type": "address"
                }
            ],
            "name": "whitelisted",
            "outputs": [
                {
                    "internalType": "bool",
                    "name": "",
                    "type": "bool"
                }
            ],
            "stateMutability": "view",
            "type": "function"
        }
    ],
    "bytecode": "60e0604052600c60a09081526b15539055551213d49256915160a21b60c0526000906200002d90826200013a565b503480156200003b57600080fd5b5060405162004d6338038062004d638339810160408190526200005e916200021f565b600180546001600160a01b039283166001600160a01b0319918216811790925592909116608052600880549092161790556200025e565b634e487b7160e01b600052604160045260246000fd5b600181811c90821680620000c057607f821691505b602082108103620000e157634e487b7160e01b600052602260045260246000fd5b50919050565b601f8211156200013557600081815260208120601f850160051c81016020861015620001105750805b601f850160051c820191505b8181101562000131578281556001016200011c565b5050505b505050565b81516001600160401b0381111562000156576200015662000095565b6200016e81620001678454620000ab565b84620000e7565b602080601f831160018114620001a657600084156200018d5750858301515b600019600386901b1c1916600185901b17855562000131565b600085815260208120601f198616915b82811015620001d757888601518255948401946001909101908401620001b6565b5085821015620001f65787850151600019600388901b60f8161c191681555b5050505050600190811b01905550565b6001600160a01b03811681146200021c57600080fd5b50565b600080604083850312156200023357600080fd5b8251620002408162000206565b6020840151909250620002538162000206565b809150509250929050565b608051614ad46200028f6000396000818161028c01528181610f950152818161142601526129ee0152614ad46000f3fe608060405234801561001057600080fd5b50600436106102275760003560e01c80637c770aae11610130578063c0680e20116100b8578063d936547e1161007c578063d936547e1461067d578063e3684e39146106a0578063e481b265146106f7578063f1b7dc781461070a578063f3191a461461071d57600080fd5b8063c0680e20146105c1578063c0aa0e8a146105d4578063c3e0fb1c14610632578063c495f1eb14610662578063c9b67af51461067557600080fd5b8063abbf4b17116100ff578063abbf4b17146104b6578063b1283e77146104c9578063bc3b2b1214610523578063bcb296671461059b578063bf7e214f146105ae57600080fd5b80637c770aae1461045a5780637cd0ee0e146104885780639b19251a1461049b5780639c769787146104ae57600080fd5b80633a12c38f116101b357806357931c0f1161018257806357931c0f146103b75780636491443914610401578063654e51e7146104215780636a6c575d146104345780637a9e5e4b1461044757600080fd5b80633a12c38f146103765780633adec5a7146103895780633d18b9121461039c5780633df4a950146103a457600080fd5b80631885f580116101fa5780631885f580146102c65780631a0c9bf2146102cf57806327507458146102e257806334e510021461030557806337badcd41461031857600080fd5b80630700037d1461022c5780630a9d85eb1461025f5780630aebeb4e146102725780630d43aaf214610287575b600080fd5b61024c61023a36600461410f565b60046020526000908152604090205481565b6040519081526020015b60405180910390f35b61024c61026d36600461412c565b610726565b61028561028036600461412c565b61076d565b005b6102ae7f000000000000000000000000000000000000000000000000000000000000000081565b6040516001600160a01b039091168152602001610256565b61024c60025481565b61024c6102dd366004614145565b6108bc565b6102f56102f036600461412c565b610b6b565b6040519015158152602001610256565b61024c610313366004614145565b610bdc565b61032b610326366004614145565b610dc3565b6040805198895260208901979097529587019490945265ffffffffffff92831660608701529082166080860152811660a085015290811660c08401521660e082015261010001610256565b610285610384366004614145565b610e3b565b61024c61039736600461412c565b610efe565b610285610f5a565b61024c6103b23660046141e1565b611006565b6103ca6103c536600461410f565b61149b565b6040805169ffffffffffffffffffff968716815260208101959095528401929092526060830152909116608082015260a001610256565b61041461040f36600461410f565b611517565b604051610256919061429c565b61028561042f3660046142e0565b6116a6565b61024c6104423660046142e0565b61175d565b61028561045536600461410f565b61189f565b61046d610468366004614302565b611995565b60408051938452602084019290925290820152606001610256565b61024c61049636600461410f565b611c66565b6102856104a936600461410f565b611c75565b610285611d4a565b61024c6104c436600461412c565b611fd0565b6104dc6104d736600461412c565b6120a2565b604080519889526001600160a01b0397881660208a015295909616948701949094529115156060860152608085015260a084015260c083015260e082015261010001610256565b61056a61053136600461412c565b600c602052600090815260409020805460019091015465ffffffffffff80821691600160301b810490911690600160601b900460ff1684565b604051610256949392919093845265ffffffffffff9283166020850152911660408301521515606082015260800190565b61024c6105a936600461412c565b61210a565b6001546102ae906001600160a01b031681565b61024c6105cf366004614145565b612144565b6105e76105e236600461412c565b612175565b604080519815158952602089019790975295870194909452606086019290925265ffffffffffff908116608086015290811660a08501521660c083015260e082015261010001610256565b610645610640366004614145565b6121e0565b604080519384529115156020840152151590820152606001610256565b61024c61067036600461448b565b6122cc565b610414612a77565b6102f561068b36600461410f565b60056020526000908152604090205460ff1681565b6106b36106ae36600461412c565b612b60565b6040805165ffffffffffff97881681529587166020870152938616938501939093529084166060840152909216608082015260ff90911660a082015260c001610256565b61041461070536600461410f565b612bbe565b61024c61071836600461412c565b612e04565b61024c60035481565b60008061073283612eaf565b5050905080600a848154811061074a5761074a61455e565b906000526020600020906006020160030154610766919061458a565b9392505050565b600160009054906101000a90046001600160a01b03166001600160a01b0316630505c8c96040518163ffffffff1660e01b8152600401602060405180830381865afa1580156107c0573d6000803e3d6000fd5b505050506040513d601f19601f820116820180604052508101906107e491906145a1565b6001600160a01b0316336001600160a01b0316146000906108215760405162461bcd60e51b815260040161081891906145be565b60405180910390fd5b5042600a82815481106108365761083661455e565b9060005260206000209060060201600401600c6101000a81548165ffffffffffff021916908365ffffffffffff16021790555060006009828154811061087e5761087e61455e565b6000918252602082206007909102019190915560405182917f8401d05adbea6548a6999cc1540766e6d2ff919292142862893d0e62ec79fbe591a250565b6001600160a01b03828116600090815260076020908152604080832085845290915281205490911633146109325760405162461bcd60e51b815260206004820152601e60248201527f4465706f7369746f72793a207472616e73666572206e6f7420666f756e6400006044820152606401610818565b6001600160a01b038316600090815260066020526040902080548390811061095c5761095c61455e565b6000918252602090912060049091020160030154600160601b900465ffffffffffff16156109cc5760405162461bcd60e51b815260206004820152601960248201527f4465706f7369746f72793a206e6f74652072656465656d6564000000000000006044820152606401610818565b503360009081526006602052604080822080546001600160a01b038616845291909220805491929184908110610a0457610a0461455e565b6000918252602080832084546001818101875595855282852060049485029092018054919094029091019081558483015494810194909455600280830154908501556003918201805492909401805465ffffffffffff19811665ffffffffffff94851690811783558654600160301b908190048616026bffffffffffffffffffffffff1990921617178082558554600160601b9081900485160265ffffffffffff60601b198216811783558654600160901b9081900486160265ffffffffffff60901b199091166bffffffffffffffffffffffff60601b1990921691909117178082559454600160c01b9081900490931690920265ffffffffffff60c01b199094169390931790556001600160a01b0385168152600690915260409020805483908110610b3357610b3361455e565b60009182526020822060049091020181815560018101829055600281019190915560030180546001600160f01b031916905592915050565b600060098281548110610b8057610b8061455e565b906000526020600020906007020160000154600014158015610bd6575042600a8381548110610bb157610bb161455e565b6000918252602090912060069091020160040154600160601b900465ffffffffffff16115b92915050565b6001600160a01b0382166000908152600660205260408120805482919084908110610c0957610c0961455e565b6000918252602080832060408051610100810182526004909402909101805484526001810154848401526002810154848301526003015465ffffffffffff8082166060860152600160301b820481166080860152600160601b8204811660a0860152600160901b8204811660c0860152600160c01b9091041660e08401526001600160a01b03881684526006909152822080549193509085908110610cb057610cb061455e565b906000526020600020906004020160030160189054906101000a900465ffffffffffff1665ffffffffffff1690506000610d1860098381548110610cf657610cf661455e565b60009182526020909120600260079092020101546001600160a01b031661149b565b5050509150506000610d53846000015183600a8681548110610d3c57610d3c61455e565b906000526020600020906006020160010154612f91565b90508015610db9576000600a8781548110610d7057610d7061455e565b9060005260206000209060060201600201549050670de0b6b3a76400008560400151828411610d9f5783610da1565b825b610dab919061466a565b610db5919061469f565b9550505b5050505092915050565b60066020528160005260406000208181548110610ddf57600080fd5b60009182526020909120600490910201805460018201546002830154600390930154919450925065ffffffffffff80821691600160301b8104821691600160601b8204811691600160901b8104821691600160c01b9091041688565b336000908152600660205260409020805482908110610e5c57610e5c61455e565b6000918252602082206003600490920201015465ffffffffffff169003610ec55760405162461bcd60e51b815260206004820152601a60248201527f4465706f7369746f72793a206e6f7465206e6f7420666f756e640000000000006044820152606401610818565b3360009081526007602090815260408083209383529290522080546001600160a01b0319166001600160a01b0392909216919091179055565b6000600b8281548110610f1357610f1361455e565b600091825260209091200154610f3490600160f01b900460ff16600a614797565b610f3d83612e04565b610f4684610726565b610f50919061466a565b610bd6919061469f565b33600081815260046020819052604080832080549390555163a9059cbb60e01b81529081019290925260248201819052906001600160a01b037f0000000000000000000000000000000000000000000000000000000000000000169063a9059cbb906044016020604051808303816000875af1158015610fde573d6000803e3d6000fd5b505050506040513d601f19601f8201168201806040525081019061100291906147a6565b5050565b600042815b83518110156113ff57600080600061103c8888868151811061102f5761102f61455e565b60200260200101516121e0565b9250925092506000600660008a6001600160a01b03166001600160a01b0316815260200190815260200160002088868151811061107b5761107b61455e565b6020026020010151815481106110935761109361455e565b906000526020600020906004020160030160189054906101000a900465ffffffffffff1665ffffffffffff16905060006110d960098381548110610cf657610cf661455e565b50505091505083156111d0576001600160a01b038a16600090815260066020526040902089518891908b90899081106111145761111461455e565b60200260200101518154811061112c5761112c61455e565b906000526020600020906004020160030160126101000a81548165ffffffffffff021916908365ffffffffffff16021790555080600660008c6001600160a01b03166001600160a01b031681526020019081526020016000208a88815181106111975761119761455e565b6020026020010151815481106111af576111af61455e565b60009182526020909120600160049092020101556111cd85896147c3565b97505b82156113e7576001600160a01b038a1660009081526006602052604081208a5161124591908c908a9081106112075761120761455e565b60200260200101518154811061121f5761121f61455e565b90600052602060002090600402016000015483600a8681548110610d3c57610d3c61455e565b6001600160a01b038c1660009081526006602052604090208b5191925083918c908a9081106112765761127661455e565b60200260200101518154811061128e5761128e61455e565b600091825260209091206001600490920201015580156113e5576001600160a01b038b1660009081526006602052604090208a518991908c908a9081106112d7576112d761455e565b6020026020010151815481106112ef576112ef61455e565b906000526020600020906004020160030160126101000a81548165ffffffffffff021916908365ffffffffffff1602179055506000670de0b6b3a764000087600a8d8b815181106113425761134261455e565b60200260200101518154811061135a5761135a61455e565b906000526020600020906006020160020154841161137857836113b7565b600a8d8b8151811061138c5761138c61455e565b6020026020010151815481106113a4576113a461455e565b9060005260206000209060060201600201545b6113c1919061466a565b6113cb919061469f565b90506113d787826147c3565b6113e1908b6147c3565b9950505b505b505050505080806113f7906147db565b91505061100b565b5060405163a9059cbb60e01b81526001600160a01b038581166004830152602482018490527f0000000000000000000000000000000000000000000000000000000000000000169063a9059cbb906044016020604051808303816000875af115801561146f573d6000803e3d6000fd5b505050506040513d601f19601f8201168201806040525081019061149391906147a6565b505092915050565b6000806000806000856001600160a01b031663feaf968c6040518163ffffffff1660e01b815260040160a060405180830381865afa1580156114e1573d6000803e3d6000fd5b505050506040513d601f19601f820116820180604052508101906115059190614813565b939a9299509097509550909350915050565b6001600160a01b0381166000908152600d6020908152604080832080548251818502810185019093528083526060949383018282801561157657602002820191906000526020600020905b815481526020019060010190808311611562575b50505050509050600080600090505b82518110156115d5576115b08382815181106115a3576115a361455e565b6020026020010151610b6b565b156115c357816115bf816147db565b9250505b806115cd816147db565b915050611585565b5060008167ffffffffffffffff8111156115f1576115f1614171565b60405190808252806020026020018201604052801561161a578160200160208202803683370190505b5090506000805b845181101561169b5761163f8582815181106115a3576115a361455e565b15611689578481815181106116565761165661455e565b60200260200101518383815181106116705761167061455e565b602090810291909101015281611685816147db565b9250505b80611693816147db565b915050611621565b509095945050505050565b600160009054906101000a90046001600160a01b03166001600160a01b0316630c340a246040518163ffffffff1660e01b8152600401602060405180830381865afa1580156116f9573d6000803e3d6000fd5b505050506040513d601f19601f8201168201806040525081019061171d91906145a1565b6001600160a01b0316336001600160a01b0316146000906117515760405162461bcd60e51b815260040161081891906145be565b50600391909155600255565b600080600983815481106117735761177361455e565b600091825260209182902060408051610100810182526007939093029091018054835260018101546001600160a01b0390811694840194909452600281015493841691830191909152600160a01b90920460ff161515606082015260038201546080820152600482015460a0820152600582015460c082015260069091015460e0820152905061180283610efe565b60085460208301516040516314e03fdd60e11b81526001600160a01b039182166004820152602481018890529116906329c07fba90604401602060405180830381865afa158015611857573d6000803e3d6000fd5b505050506040513d601f19601f8201168201806040525081019061187b9190614863565b61188d90670de0b6b3a764000061466a565b611897919061469f565b949350505050565b600160009054906101000a90046001600160a01b03166001600160a01b0316630c340a246040518163ffffffff1660e01b8152600401602060405180830381865afa1580156118f2573d6000803e3d6000fd5b505050506040513d601f19601f8201168201806040525081019061191691906145a1565b6001600160a01b0316336001600160a01b03161460009061194a5760405162461bcd60e51b815260040161081891906145be565b50600180546001600160a01b0319166001600160a01b0383169081179091556040517f2f658b440c35314f52658ea8a740e05b284cdc84dc9ae01e891f21b8933e7cad90600090a250565b600080600080600989815481106119ae576119ae61455e565b906000526020600020906007020190506000600a8a815481106119d3576119d361455e565b600091825260209182902060408051610100810182526006909302909101805460ff161515835260018101549383019390935260028301549082015260038201546060820152600482015465ffffffffffff8082166080840152600160301b8204811660a0840152600160601b909104811660c0830181905260059093015460e0830152909250429190821610611aac5760405162461bcd60e51b815260206004820152601c60248201527f4465706f7369746f72793a206d61726b657420636f6e636c75646564000000006044820152606401610818565b611ab68b82612ff1565b8151611ac6578160800151611ad6565b808260800151611ad6919061487c565b60408051610100810182528554815260018601546001600160a01b039081166020830152600287015490811692820192909252600160a01b90910460ff161515606082015260038501546080820152600485015460a0820152600585015460c0820152600685015460e082015265ffffffffffff919091169550611b619089908b908e8e8a8d6131a4565b6002850154909750909450600160a01b900460ff16611b805785611b82565b895b836000016000828254611b95919061458a565b9250508190555089836006016000828254611bb091906147c3565b9250508190555085836005016000828254611bcb91906147c3565b9250508190555085836003016000828254611be691906147c3565b90915550506008546001840154611c0c916001600160a01b03918216913391168d6133c4565b82600301548260e001511015611c4e5760008084556040518c917f8401d05adbea6548a6999cc1540766e6d2ff919292142862893d0e62ec79fbe591a2611c58565b611c588b82613424565b505050955095509592505050565b6000610bd6826103b284612bbe565b600160009054906101000a90046001600160a01b03166001600160a01b0316630505c8c96040518163ffffffff1660e01b8152600401602060405180830381865afa158015611cc8573d6000803e3d6000fd5b505050506040513d601f19601f82011682018060405250810190611cec91906145a1565b6001600160a01b0316336001600160a01b031614600090611d205760405162461bcd60e51b815260040161081891906145be565b506001600160a01b03166000908152600560205260409020805460ff19811660ff90911615179055565b600160009054906101000a90046001600160a01b03166001600160a01b0316630c340a246040518163ffffffff1660e01b8152600401602060405180830381865afa158015611d9d573d6000803e3d6000fd5b505050506040513d601f19601f82011682018060405250810190611dc191906145a1565b6001600160a01b0316336001600160a01b03161480611e675750600160009054906101000a90046001600160a01b03166001600160a01b031663452a93206040518163ffffffff1660e01b8152600401602060405180830381865afa158015611e2e573d6000803e3d6000fd5b505050506040513d601f19601f82011682018060405250810190611e5291906145a1565b6001600160a01b0316336001600160a01b0316145b80611ef95750600160009054906101000a90046001600160a01b03166001600160a01b0316630505c8c96040518163ffffffff1660e01b8152600401602060405180830381865afa158015611ec0573d6000803e3d6000fd5b505050506040513d601f19601f82011682018060405250810190611ee491906145a1565b6001600160a01b0316336001600160a01b0316145b611f375760405162461bcd60e51b815260206004820152600f60248201526e13db9b1e48185d5d1a1bdc9a5e9959608a1b6044820152606401610818565b600160009054906101000a90046001600160a01b03166001600160a01b031663fbfa77cf6040518163ffffffff1660e01b8152600401602060405180830381865afa158015611f8a573d6000803e3d6000fd5b505050506040513d601f19601f82011682018060405250810190611fae91906145a1565b600880546001600160a01b0319166001600160a01b0392909216919091179055565b600080600b8381548110611fe657611fe661455e565b600091825260208083206040805160c081018252939091015465ffffffffffff8082168552600160301b82048116938501849052600160601b8204811692850192909252600160901b810482166060850152600160c01b81049091166080840152600160f01b900460ff1660a0830152909250612063904261458a565b9050816040015165ffffffffffff1681600986815481106120865761208661455e565b90600052602060002090600702016003015461188d919061466a565b600981815481106120b257600080fd5b600091825260209091206007909102018054600182015460028301546003840154600485015460058601546006909601549496506001600160a01b039384169593831694600160a01b90930460ff1693919290919088565b600061211582611fd0565b600983815481106121285761212861455e565b906000526020600020906007020160030154610bd6919061458a565b600d602052816000526040600020818154811061216057600080fd5b90600052602060002001600091509150505481565b600a818154811061218557600080fd5b600091825260209091206006909102018054600182015460028301546003840154600485015460059095015460ff90941695509193909265ffffffffffff80831692600160301b8104821692600160601b9091049091169088565b6001600160a01b0382166000908152600660205260408120805482918291829190869081106122115761221161455e565b60009182526020918290206040805161010081018252600490930290910180548352600181015493830193909352600283015490820181905260039092015465ffffffffffff8082166060840152600160301b820481166080840152600160601b8204811660a0840152600160901b8204811660c08401819052600160c01b9092041660e083015291955091501580156122b7575042816080015165ffffffffffff1611155b80156122c257508315155b9250509250925092565b60015460408051630505c8c960e01b815290516000926001600160a01b031691630505c8c99160048083019260209291908290030181865afa158015612316573d6000803e3d6000fd5b505050506040513d601f19601f8201168201806040525081019061233a91906145a1565b6001600160a01b0316336001600160a01b03161460009061236e5760405162461bcd60e51b815260040161081891906145be565b50602083015160009061238290429061458a565b90506000886001600160a01b031663313ce5676040518163ffffffff1660e01b8152600401602060405180830381865afa1580156123c4573d6000803e3d6000fd5b505050506040513d601f19601f820116820180604052508101906123e891906148a6565b60ff169050600086816020020151612401578751612499565b602088015160085489516040516314e03fdd60e11b81526001600160a01b038e8116600483015260248201929092529116906329c07fba90604401602060405180830381865afa158015612459573d6000803e3d6000fd5b505050506040513d601f19601f8201168201806040525081019061247d9190614863565b61248f90670de0b6b3a764000061466a565b612499919061469f565b855190915060009084906124b39063ffffffff168461466a565b6124bd919061469f565b90506000620186a08a600260200201516124d7908561466a565b6124e1919061469f565b6124eb90846147c3565b9050600083600860009054906101000a90046001600160a01b03166001600160a01b031663860f50486040518163ffffffff1660e01b8152600401602060405180830381865afa158015612543573d6000803e3d6000fd5b505050506040513d601f19601f820116820180604052508101906125679190614863565b60208d0151612576919061466a565b612580919061469f565b6009805460408051610100810190915290995091925090808d6000602002015181526020018f6001600160a01b031681526020018e6001600160a01b031681526020018c6000600281106125d6576125d661455e565b602090810291909101511515825281810188905260408083018890526000606080850182905260809485018290528654600181810189559783529184902086516007909302019182559285015181870180546001600160a01b039283166001600160a01b031990911617905585830151600283018054958801511515600160a01b026001600160a81b031990961691909216179390931790925591830151600382015560a0830151600482015560c0830151600582015560e09092015160069092019190915580516101008101909152600a9181908d906020020151151581526020018d6003600581106126cc576126cc61455e565b602002015181526020018d6004600581106126e9576126e961455e565b602002015181526020018381526020018b60006003811061270c5761270c61455e565b602002015165ffffffffffff1681526020018b6002600381106127315761273161455e565b602002015165ffffffffffff1681526020018b6001600381106127565761275661455e565b6020908102919091015165ffffffffffff908116835291810186905283546001818101865560009586528286208551600690930201805492151560ff19909316929092178255848301519082015560408085015160028301556060808601516003840155608086015160048401805460a089015160c0808b01518a16600160601b0265ffffffffffff60601b19928b16600160301b026bffffffffffffffffffffffff19909416958b1695909517929092171692909217905560e0909601516005909301929092558051948501815242841680865292850192909252918a1690830152600b92908201908b906020908102919091015163ffffffff168252018a6001602002015163ffffffff1665ffffffffffff1681526020018760ff168152509080600181540180825580915050600190039060005260206000200160009091909190915060008201518160000160006101000a81548165ffffffffffff021916908365ffffffffffff16021790555060208201518160000160066101000a81548165ffffffffffff021916908365ffffffffffff160217905550604082015181600001600c6101000a81548165ffffffffffff021916908365ffffffffffff16021790555060608201518160000160126101000a81548165ffffffffffff021916908365ffffffffffff16021790555060808201518160000160186101000a81548165ffffffffffff021916908365ffffffffffff16021790555060a082015181600001601e6101000a81548160ff021916908360ff1602179055505050600d60008e6001600160a01b03166001600160a01b031681526020019081526020016000208790806001815401808255809150506001900390600052602060002001600090919091909150558c6001600160a01b03167f00000000000000000000000000000000000000000000000000000000000000006001600160a01b0316887f2f6ff727bd580b1d1b8332e28aa93ed4ec9d8b08d6e30d6b4c9f7aa63ca17f638e600160058110612a4b57612a4b61455e565b6020020151604051612a5f91815260200190565b60405180910390a45050505050509695505050505050565b60606000805b600954811015612ab557612a9081610b6b565b15612aa35781612a9f816147db565b9250505b80612aad816147db565b915050612a7d565b5060008167ffffffffffffffff811115612ad157612ad1614171565b604051908082528060200260200182016040528015612afa578160200160208202803683370190505b5090506000805b600954811015612b5757612b1481610b6b565b15612b455780838381518110612b2c57612b2c61455e565b602090810291909101015281612b41816147db565b9250505b80612b4f816147db565b915050612b01565b50909392505050565b600b8181548110612b7057600080fd5b60009182526020909120015465ffffffffffff8082169250600160301b8204811691600160601b8104821691600160901b8204811691600160c01b810490911690600160f01b900460ff1686565b6001600160a01b0381166000908152600660209081526040808320805482518185028101850190935280835260609493849084015b82821015612c8a57600084815260209081902060408051610100810182526004860290920180548352600180820154848601526002820154928401929092526003015465ffffffffffff8082166060850152600160301b820481166080850152600160601b8204811660a0850152600160901b8204811660c0850152600160c01b9091041660e08301529083529092019101612bf3565b505050509050600080600090505b8251811015612d1957828181518110612cb357612cb361455e565b602002602001015160a0015165ffffffffffff166000148015612cf45750828181518110612ce357612ce361455e565b602002602001015160400151600014155b15612d075781612d03816147db565b9250505b80612d11816147db565b915050612c98565b5060008167ffffffffffffffff811115612d3557612d35614171565b604051908082528060200260200182016040528015612d5e578160200160208202803683370190505b5090506000805b845181101561169b57848181518110612d8057612d8061455e565b602002602001015160a0015165ffffffffffff166000148015612dc15750848181518110612db057612db061455e565b602002602001015160400151600014155b15612df25780838381518110612dd957612dd961455e565b602090810291909101015281612dee816147db565b9250505b80612dfc816147db565b915050612d65565b600854604080516310c1ea0960e31b815290516000926001600160a01b03169163860f50489160048083019260209291908290030181865afa158015612e4e573d6000803e3d6000fd5b505050506040513d601f19601f82011682018060405250810190612e729190614863565b600b8381548110612e8557612e8561455e565b600091825260209091200154612ea690600160f01b900460ff16600a614797565b610f468461210a565b6000818152600c6020908152604080832081516080810183528154815260019091015465ffffffffffff80821694830194909452600160301b810490931691810191909152600160601b90910460ff1615156060820181905282918291612f2157600080600093509350935050612f8a565b6020810151612f3090426148c9565b9250806040015165ffffffffffff168365ffffffffffff1610915081612f57578051612f86565b806040015165ffffffffffff168365ffffffffffff168260000151612f7c919061466a565b612f86919061469f565b9350505b9193909250565b60008084612fa784670de0b6b3a76400006148f0565b612fb19190614931565b612fc385670de0b6b3a7640000614931565b612fcd91906149b6565b905060008113612fde576000612fe8565b612fe885826149f5565b95945050505050565b612ffa82611fd0565b6009838154811061300d5761300d61455e565b9060005260206000209060070201600301600082825461302d919061458a565b9250508190555080600b83815481106130485761304861455e565b60009182526020808320909101805465ffffffffffff94909416600160301b026bffffffffffff0000000000001990941693909317909255838152600c909152604090206001015460ff600160601b9091041615611002576000828152600c602052604081209080806130ba86612eaf565b92509250925082600a87815481106130d4576130d461455e565b906000526020600020906006020160030160008282546130f4919061458a565b9091555050801561318c5782846000016000828254613113919061458a565b909155505060018401805483919060069061313e908490600160301b900465ffffffffffff166148c9565b92506101000a81548165ffffffffffff021916908365ffffffffffff160217905550848460010160006101000a81548165ffffffffffff021916908365ffffffffffff16021790555061319c565b60018401805460ff60601b191690555b505050505050565b60008060006131b28761398c565b9050888111156132045760405162461bcd60e51b815260206004820152601f60248201527f4465706f7369746f72793a206d6f7265207468616e206d6178207072696365006044820152606401610818565b60085460208901516040516314e03fdd60e11b81526001600160a01b03918216600482015260248101899052600092849216906329c07fba90604401602060405180830381865afa15801561325d573d6000803e3d6000fd5b505050506040513d601f19601f820116820180604052508101906132819190614863565b61329390670de0b6b3a764000061466a565b61329d919061469f565b90508860a001518111156132f35760405162461bcd60e51b815260206004820152601d60248201527f4465706f7369746f72793a206d61782073697a652065786365656465640000006044820152606401610818565b6000806133088d8c60400151858b8e8c6139fa565b6008546040516340c10f1960e01b8152306004820152602481018790529294509092506001600160a01b0316906340c10f1990604401600060405180830381600087803b15801561335857600080fd5b505af115801561336c573d6000803e3d6000fd5b5050604080518c8152602081018890529081018490528c92507f9b41bfc977e9428350a1da8b2f15ff4d605e94137fdcfe31105fc78e87f4779a915060600160405180910390a2509b909a5098505050505050505050565b604080516001600160a01b0385811660248301528416604482015260648082018490528251808303909101815260849091019091526020810180516001600160e01b03166323b872dd60e01b17905261341e908590613c6b565b50505050565b6000600b83815481106134395761343961455e565b60009182526020918290206040805160c081018252929091015465ffffffffffff808216808552600160301b8304821695850195909552600160601b8204811692840192909252600160901b810482166060840152600160c01b810490911660808301819052600160f01b90910460ff1660a08301529092506134bb9161487c565b65ffffffffffff168265ffffffffffff1610613987576000600984815481106134e6576134e661455e565b6000918252602080832060408051610100810182526007949094029091018054845260018101546001600160a01b0390811693850193909352600281015492831691840191909152600160a01b90910460ff161515606083015260038101546080830152600481015460a0830152600581015460c08301526006015460e0820152600a80549193508591879081106135805761358061455e565b9060005260206000209060060201600401600c9054906101000a900465ffffffffffff166135ae91906148c9565b65ffffffffffff16905060006135c38661398c565b9050600083606001516135d757835161367d565b600854602085015185516040516314e03fdd60e11b815285936001600160a01b0316926329c07fba92613620926004016001600160a01b03929092168252602082015260400190565b602060405180830381865afa15801561363d573d6000803e3d6000fd5b505050506040513d601f19601f820116820180604052508101906136619190614863565b61367390670de0b6b3a764000061466a565b61367d919061469f565b905082856060015165ffffffffffff1682613698919061466a565b6136a2919061469f565b600988815481106136b5576136b561455e565b906000526020600020906007020160040181905550600083866040015165ffffffffffff16836136e5919061466a565b6136ef919061469f565b9050600081600860009054906101000a90046001600160a01b03166001600160a01b031663860f50486040518163ffffffff1660e01b8152600401602060405180830381865afa158015613747573d6000803e3d6000fd5b505050506040513d601f19601f8201168201806040525081019061376b9190614863565b613775908661466a565b61377f919061469f565b9050887f78f9c01d72705dba80d6ce051d36a1f987bf2a3800fee938c111a2ae741e57d1600a8b815481106137b6576137b661455e565b906000526020600020906006020160030154836040516137e0929190918252602082015260400190565b60405180910390a2600a89815481106137fb576137fb61455e565b90600052602060002090600602016003015481106138415780600a8a815481106138275761382761455e565b906000526020600020906006020160030181905550613945565b600081600a8b815481106138575761385761455e565b906000526020600020906006020160030154613873919061458a565b905060405180608001604052808281526020018a65ffffffffffff168152602001896080015165ffffffffffff16815260200160011515815250600c60008c81526020019081526020016000206000820151816000015560208201518160010160006101000a81548165ffffffffffff021916908365ffffffffffff16021790555060408201518160010160066101000a81548165ffffffffffff021916908365ffffffffffff160217905550606082015181600101600c6101000a81548160ff021916908315150217905550905050505b87600b8a815481106139595761395961455e565b6000918252602090912001805465ffffffffffff191665ffffffffffff929092169190911790555050505050505b505050565b6000600b82815481106139a1576139a161455e565b6000918252602090912001546139c290600160f01b900460ff16600a614797565b6139cb83613d3d565b600a84815481106139de576139de61455e565b906000526020600020906006020160030154610f50919061466a565b6001600160a01b03861660009081526006602052604081205490613a1d8761149b565b90919293509091509050508091505060066000896001600160a01b03166001600160a01b03168152602001908152602001600020604051806101000160405280838152602001600081526020018881526020014265ffffffffffff1681526020018765ffffffffffff168152602001600065ffffffffffff168152602001600065ffffffffffff1681526020018665ffffffffffff16815250908060018154018082558091505060019003906000526020600020906004020160009091909190915060008201518160000155602082015181600101556040820151816002015560608201518160030160006101000a81548165ffffffffffff021916908365ffffffffffff16021790555060808201518160030160066101000a81548165ffffffffffff021916908365ffffffffffff16021790555060a082015181600301600c6101000a81548165ffffffffffff021916908365ffffffffffff16021790555060c08201518160030160126101000a81548165ffffffffffff021916908365ffffffffffff16021790555060e08201518160030160186101000a81548165ffffffffffff021916908365ffffffffffff16021790555050506000613be28785613e0e565b6008549091506001600160a01b03166340c10f1930613c01848b6147c3565b6040516001600160e01b031960e085901b1681526001600160a01b0390921660048301526024820152604401600060405180830381600087803b158015613c4757600080fd5b505af1158015613c5b573d6000803e3d6000fd5b5050505050965096945050505050565b6000613cc0826040518060400160405280602081526020017f5361666545524332303a206c6f772d6c6576656c2063616c6c206661696c6564815250856001600160a01b03166140019092919063ffffffff16565b8051909150156139875780806020019051810190613cde91906147a6565b6139875760405162461bcd60e51b815260206004820152602a60248201527f5361666545524332303a204552433230206f7065726174696f6e20646964206e6044820152691bdd081cdd58d8d9595960b21b6064820152608401610818565b600854604080516310c1ea0960e31b815290516000926001600160a01b03169163860f50489160048083019260209291908290030181865afa158015613d87573d6000803e3d6000fd5b505050506040513d601f19601f82011682018060405250810190613dab9190614863565b600b8381548110613dbe57613dbe61455e565b600091825260209091200154613ddf90600160f01b900460ff16600a614797565b60098481548110613df257613df261455e565b906000526020600020906007020160030154610f50919061466a565b60008061271060025485613e22919061466a565b613e2c919061469f565b9050600061271060035486613e41919061466a565b613e4b919061469f565b6001600160a01b03851660009081526005602052604090205490915060ff1615613f48576001600160a01b03841660009081526004602052604081208054839290613e979084906147c3565b909155505060015460408051630229549960e51b8152905184926004926000926001600160a01b039092169163452a93209180860191602091819003870181865afa158015613eea573d6000803e3d6000fd5b505050506040513d601f19601f82011682018060405250810190613f0e91906145a1565b6001600160a01b03166001600160a01b031681526020019081526020016000206000828254613f3d91906147c3565b90915550613ff79050565b613f5281836147c3565b60015460408051630229549960e51b815290516004926000926001600160a01b039091169163452a93209180860191602091819003870181865afa158015613f9e573d6000803e3d6000fd5b505050506040513d601f19601f82011682018060405250810190613fc291906145a1565b6001600160a01b03166001600160a01b031681526020019081526020016000206000828254613ff191906147c3565b90915550505b612fe881836147c3565b606061189784846000856060843b61405b5760405162461bcd60e51b815260206004820152601d60248201527f416464726573733a2063616c6c20746f206e6f6e2d636f6e74726163740000006044820152606401610818565b600080866001600160a01b031685876040516140779190614a4f565b60006040518083038185875af1925050503d80600081146140b4576040519150601f19603f3d011682016040523d82523d6000602084013e6140b9565b606091505b509150915081156140cd5791506118979050565b8051156140dd5780518082602001fd5b8360405162461bcd60e51b81526004016108189190614a6b565b6001600160a01b038116811461410c57600080fd5b50565b60006020828403121561412157600080fd5b8135610766816140f7565b60006020828403121561413e57600080fd5b5035919050565b6000806040838503121561415857600080fd5b8235614163816140f7565b946020939093013593505050565b634e487b7160e01b600052604160045260246000fd5b6040805190810167ffffffffffffffff811182821017156141aa576141aa614171565b60405290565b604051601f8201601f1916810167ffffffffffffffff811182821017156141d9576141d9614171565b604052919050565b600080604083850312156141f457600080fd5b82356141ff816140f7565b915060208381013567ffffffffffffffff8082111561421d57600080fd5b818601915086601f83011261423157600080fd5b81358181111561424357614243614171565b8060051b91506142548483016141b0565b818152918301840191848101908984111561426e57600080fd5b938501935b8385101561428c57843582529385019390850190614273565b8096505050505050509250929050565b6020808252825182820181905260009190848201906040850190845b818110156142d4578351835292840192918401916001016142b8565b50909695505050505050565b600080604083850312156142f357600080fd5b50508035926020909101359150565b600080600080600060a0868803121561431a57600080fd5b853594506020860135935060408601359250606086013561433a816140f7565b9150608086013561434a816140f7565b809150509295509295909350565b600060405160a0810181811067ffffffffffffffff8211171561437d5761437d614171565b60405290508060a083018481111561439457600080fd5b835b818110156143ae578035835260209283019201614396565b50505092915050565b801515811461410c57600080fd5b600082601f8301126143d657600080fd5b6040516060810181811067ffffffffffffffff821117156143f9576143f9614171565b60405280606084018581111561440e57600080fd5b845b81811015614428578035835260209283019201614410565b509195945050505050565b600082601f83011261444457600080fd5b61444c614187565b80604084018581111561445e57600080fd5b845b8181101561169b57803563ffffffff8116811461447d5760008081fd5b845260209384019301614460565b6000806000806000806101c087890312156144a557600080fd5b86356144b0816140f7565b95506020878101356144c1816140f7565b9550605f880189136144d257600080fd5b6144df8960408a01614358565b94508860ff8901126144f057600080fd5b6144f8614187565b806101208a018b81111561450b57600080fd5b60e08b015b81811015614530578035614523816143b7565b8452928401928401614510565b5081965061453e8c826143c5565b955050505050614552886101808901614433565b90509295509295509295565b634e487b7160e01b600052603260045260246000fd5b634e487b7160e01b600052601160045260246000fd5b60008282101561459c5761459c614574565b500390565b6000602082840312156145b357600080fd5b8151610766816140f7565b600060208083526000845481600182811c9150808316806145e057607f831692505b85831081036145fd57634e487b7160e01b85526022600452602485fd5b87860183815260200181801561461a57600181146146305761465b565b60ff198616825284151560051b8201965061465b565b60008b81526020902060005b868110156146555781548482015290850190890161463c565b83019750505b50949998505050505050505050565b600081600019048311821515161561468457614684614574565b500290565b634e487b7160e01b600052601260045260246000fd5b6000826146ae576146ae614689565b500490565b600181815b808511156146ee5781600019048211156146d4576146d4614574565b808516156146e157918102915b93841c93908002906146b8565b509250929050565b60008261470557506001610bd6565b8161471257506000610bd6565b816001811461472857600281146147325761474e565b6001915050610bd6565b60ff84111561474357614743614574565b50506001821b610bd6565b5060208310610133831016604e8410600b8410161715614771575081810a610bd6565b61477b83836146b3565b806000190482111561478f5761478f614574565b029392505050565b600061076660ff8416836146f6565b6000602082840312156147b857600080fd5b8151610766816143b7565b600082198211156147d6576147d6614574565b500190565b6000600182016147ed576147ed614574565b5060010190565b805169ffffffffffffffffffff8116811461480e57600080fd5b919050565b600080600080600060a0868803121561482b57600080fd5b614834866147f4565b9450602086015193506040860151925060608601519150614857608087016147f4565b90509295509295909350565b60006020828403121561487557600080fd5b5051919050565b600065ffffffffffff80831681851680830382111561489d5761489d614574565b01949350505050565b6000602082840312156148b857600080fd5b815160ff8116811461076657600080fd5b600065ffffffffffff838116908316818110156148e8576148e8614574565b039392505050565b600080821280156001600160ff1b038490038513161561491257614912614574565b600160ff1b839003841281161561492b5761492b614574565b50500190565b60006001600160ff1b038184138284138082168684048611161561495757614957614574565b600160ff1b600087128281168783058912161561497657614976614574565b6000871292508782058712848416161561499257614992614574565b878505871281841616156149a8576149a8614574565b505050929093029392505050565b60008083128015600160ff1b8501841216156149d4576149d4614574565b6001600160ff1b03840183138116156149ef576149ef614574565b50500390565b600082614a0457614a04614689565b600160ff1b821460001984141615614a1e57614a1e614574565b500590565b60005b83811015614a3e578181015183820152602001614a26565b8381111561341e5750506000910152565b60008251614a61818460208701614a23565b9190910192915050565b6020815260008251806020840152614a8a816040850160208701614a23565b601f01601f1916919091016040019291505056fea2646970667358221220cc262c8c2197522e992524d8d763f89e53ca8421e2a34997ca07bbbc265222c664736f6c634300080f0033",
    "sourcePath": "/home/achthar/requiem-bond/contracts/CallableBondDepository.sol",
    "compiler": {
        "name": "solc",
        "version": "0.8.16+commit.e14f2714"
    },
    "functionHashes": {
        "adjustments(uint256)": "bc3b2b12",
        "authority()": "bf7e214f",
        "call(address,uint256[])": "3df4a950",
        "callAll(address)": "7cd0ee0e",
        "close(uint256)": "0aebeb4e",
        "create(address,address,uint256[5],bool[2],uint256[3],uint32[2])": "c495f1eb",
        "currentControlVariable(uint256)": "0a9d85eb",
        "currentDebt(uint256)": "bcb29667",
        "daoReward()": "1885f580",
        "debtDecay(uint256)": "abbf4b17",
        "debtRatio(uint256)": "f1b7dc78",
        "deposit(uint256,uint256,uint256,address,address)": "7c770aae",
        "getLatestPriceData(address)": "57931c0f",
        "getReward()": "3d18b912",
        "indexesFor(address)": "e481b265",
        "isLive(uint256)": "27507458",
        "liveMarkets()": "c9b67af5",
        "liveMarketsFor(address)": "64914439",
        "marketPrice(uint256)": "3adec5a7",
        "markets(uint256)": "b1283e77",
        "marketsForQuote(address,uint256)": "c0680e20",
        "metadata(uint256)": "e3684e39",
        "optionPayoutFor(address,uint256)": "34e51002",
        "payoutFor(uint256,uint256)": "6a6c575d",
        "pendingFor(address,uint256)": "c3e0fb1c",
        "pullTerms(address,uint256)": "1a0c9bf2",
        "pushTerms(address,uint256)": "3a12c38f",
        "refReward()": "f3191a46",
        "req()": "0d43aaf2",
        "rewards(address)": "0700037d",
        "setAuthority(address)": "7a9e5e4b",
        "setRewards(uint256,uint256)": "654e51e7",
        "terms(uint256)": "c0aa0e8a",
        "updateTreasury()": "9c769787",
        "userTerms(address,uint256)": "37badcd4",
        "whitelist(address)": "9b19251a",
        "whitelisted(address)": "d936547e"
    },
    "gasEstimates": {
        "creation": {
            "codeDepositCost": "3831200",
            "executionCost": "infinite",
            "totalCost": "infinite"
        },
        "external": {
            "adjustments(uint256)": "4796",
            "authority()": "2470",
            "call(address,uint256[])": "infinite",
            "callAll(address)": "infinite",
            "close(uint256)": "infinite",
            "create(address,address,uint256[5],bool[2],uint256[3],uint32[2])": "infinite",
            "currentControlVariable(uint256)": "9624",
            "currentDebt(uint256)": "infinite",
            "daoReward()": "2330",
            "debtDecay(uint256)": "9435",
            "debtRatio(uint256)": "infinite",
            "deposit(uint256,uint256,uint256,address,address)": "infinite",
            "getLatestPriceData(address)": "infinite",
            "getReward()": "infinite",
            "indexesFor(address)": "infinite",
            "isLive(uint256)": "9055",
            "liveMarkets()": "infinite",
            "liveMarketsFor(address)": "infinite",
            "marketPrice(uint256)": "infinite",
            "markets(uint256)": "17564",
            "marketsForQuote(address,uint256)": "4772",
            "metadata(uint256)": "4927",
            "optionPayoutFor(address,uint256)": "infinite",
            "payoutFor(uint256,uint256)": "infinite",
            "pendingFor(address,uint256)": "11645",
            "pullTerms(address,uint256)": "273632",
            "pushTerms(address,uint256)": "29172",
            "refReward()": "2416",
            "req()": "infinite",
            "rewards(address)": "2549",
            "setAuthority(address)": "infinite",
            "setRewards(uint256,uint256)": "infinite",
            "terms(uint256)": "15469",
            "updateTreasury()": "infinite",
            "userTerms(address,uint256)": "11504",
            "whitelist(address)": "infinite",
            "whitelisted(address)": "2569"
        },
        "internal": {
            "_bondAsset(address,uint256,struct ICallableBondDepository.Market memory,uint256,uint256,uint48,address)": "infinite",
            "_calculatePayoff(int256,int256,int256)": "infinite",
            "_controlDecay(uint256)": "infinite",
            "_debtRatio(uint256)": "infinite",
            "_decay(uint256,uint48)": "infinite",
            "_marketPrice(uint256)": "infinite",
            "_tune(uint256,uint48)": "infinite"
        }
    }
}